{
  "contractName": "Owner",
  "abi": [
    {
      "inputs": [],
      "payable": false,
      "stateMutability": "nonpayable",
      "type": "constructor"
    },
    {
      "constant": true,
      "inputs": [],
      "name": "getOwner",
      "outputs": [
        {
          "name": "myOwner",
          "type": "address"
        }
      ],
      "payable": false,
      "stateMutability": "view",
      "type": "function"
    }
  ],
  "bytecode": "0x608060405234801561001057600080fd5b50336000806101000a81548173ffffffffffffffffffffffffffffffffffffffff021916908373ffffffffffffffffffffffffffffffffffffffff16021790555060ed8061005f6000396000f3fe608060405260043610603f576000357c0100000000000000000000000000000000000000000000000000000000900463ffffffff168063893d20e8146044575b600080fd5b348015604f57600080fd5b5060566098565b604051808273ffffffffffffffffffffffffffffffffffffffff1673ffffffffffffffffffffffffffffffffffffffff16815260200191505060405180910390f35b60008060009054906101000a900473ffffffffffffffffffffffffffffffffffffffff1690509056fea165627a7a723058202aa3865a17349810bd91a015b328dc47c736ba1169113bedbb180c16e890a6e50029",
  "source": "pragma solidity ^0.5.0;\n\ncontract Owner {\n    address private owner;\n\n    modifier onlyOwner() {\n        require (msg.sender == owner, \"Only owner can make changes\");\n        _;\n    }\n    \n    constructor () public {\n        owner = msg.sender;\n    }\n    \n    function getOwner()  public view returns   (address myOwner) {\n        return owner;\n    } \n}\n",
  "sourcePath": "/home/juan/DAPPS/Splitter-Proyect/contracts/Owner.sol",
  "compiler": {
    "name": "solc",
    "version": "0.5.0+commit.1d4f565a.Emscripten.clang"
  },
  "schemaVersion": "3.0.3",
  "updatedAt": "2019-05-03T23:21:00.007Z",
  "devdoc": {
    "methods": {}
  },
  "userdoc": {
    "methods": {}
  }
}