{
  "contractName": "Pausable",
  "abi": [
    {
      "inputs": [
        {
          "name": "initialState",
          "type": "bool"
        }
      ],
      "payable": false,
      "stateMutability": "nonpayable",
      "type": "constructor"
    },
    {
      "anonymous": false,
      "inputs": [
        {
          "indexed": false,
          "name": "newState",
          "type": "bool"
        },
        {
          "indexed": false,
          "name": "pausedBy",
          "type": "address"
        }
      ],
      "name": "LogPaused",
      "type": "event"
    },
    {
      "constant": false,
      "inputs": [
        {
          "name": "newState",
          "type": "bool"
        }
      ],
      "name": "contractPaused",
      "outputs": [],
      "payable": false,
      "stateMutability": "nonpayable",
      "type": "function"
    }
  ],
  "bytecode": "0x608060405234801561001057600080fd5b506040516020806102cc8339810180604052602081101561003057600080fd5b8101908080519060200190929190505050336000806101000a81548173ffffffffffffffffffffffffffffffffffffffff021916908373ffffffffffffffffffffffffffffffffffffffff16021790555080600060146101000a81548160ff02191690831515021790555050610221806100ab6000396000f3fe608060405260043610610041576000357c0100000000000000000000000000000000000000000000000000000000900463ffffffff168063f378156a14610046575b600080fd5b34801561005257600080fd5b506100816004803603602081101561006957600080fd5b81019080803515159060200190929190505050610083565b005b6000809054906101000a900473ffffffffffffffffffffffffffffffffffffffff1673ffffffffffffffffffffffffffffffffffffffff163373ffffffffffffffffffffffffffffffffffffffff16141515610147576040517f08c379a000000000000000000000000000000000000000000000000000000000815260040180806020018281038252601b8152602001807f4f6e6c79206f776e65722063616e206d616b65206368616e676573000000000081525060200191505060405180910390fd5b600060149054906101000a900460ff1615158115151415151561016957600080fd5b80600060146101000a81548160ff0219169083151502179055507fb96236187cfb0bd6cfd6475d56a8dd9fb8aa64e0584573fedb3bdde6de7024d7813360405180831515151581526020018273ffffffffffffffffffffffffffffffffffffffff1673ffffffffffffffffffffffffffffffffffffffff1681526020019250505060405180910390a15056fea165627a7a723058206b2ff8fdbec6303679c8d629e52a5af3f1f39c42a0a1cb6429abf8ad289a18e60029",
  "source": "pragma solidity ^0.5.0;\n\nimport \"./Owner.sol\";\n\ncontract Pausable is Owner {\n    bool private paused;\n\n    event LogPaused (bool newState, address pausedBy);\n    \n    modifier notPaused() {\n        require (!paused, \"Contract paused\");\n        _;\n    }\n\n    constructor (bool initialState) public {\n        paused = initialState;\n    }\n\n    function contractPaused(bool newState) public onlyOwner() {\n        require(newState != paused);\n        paused = newState;\n        emit LogPaused (newState, msg.sender);\n    }\n}",
  "sourcePath": "/home/juan/DAPPS/Splitter-proyect/contracts/Pausable.sol",
  "compiler": {
    "name": "solc",
    "version": "0.5.0+commit.1d4f565a.Emscripten.clang"
  },
  "schemaVersion": "3.0.3",
  "updatedAt": "2019-05-02T14:37:15.307Z",
  "devdoc": {
    "methods": {}
  },
  "userdoc": {
    "methods": {}
  }
}