{
  "contractName": "Pausable",
  "abi": [
    {
      "constant": true,
      "inputs": [],
      "name": "getOwner",
      "outputs": [
        {
          "name": "myOwner",
          "type": "address"
        }
      ],
      "payable": false,
      "stateMutability": "view",
      "type": "function"
    },
    {
      "inputs": [
        {
          "name": "initialState",
          "type": "bool"
        }
      ],
      "payable": false,
      "stateMutability": "nonpayable",
      "type": "constructor"
    },
    {
      "anonymous": false,
      "inputs": [
        {
          "indexed": false,
          "name": "newState",
          "type": "bool"
        },
        {
          "indexed": false,
          "name": "pausedBy",
          "type": "address"
        }
      ],
      "name": "LogPaused",
      "type": "event"
    },
    {
      "constant": false,
      "inputs": [
        {
          "name": "newState",
          "type": "bool"
        }
      ],
      "name": "contractPaused",
      "outputs": [],
      "payable": false,
      "stateMutability": "nonpayable",
      "type": "function"
    }
  ],
  "bytecode": "0x608060405234801561001057600080fd5b506040516020806103578339810180604052602081101561003057600080fd5b8101908080519060200190929190505050336000806101000a81548173ffffffffffffffffffffffffffffffffffffffff021916908373ffffffffffffffffffffffffffffffffffffffff16021790555080600060146101000a81548160ff021916908315150217905550506102ac806100ab6000396000f3fe60806040526004361061004c576000357c0100000000000000000000000000000000000000000000000000000000900463ffffffff168063893d20e814610051578063f378156a146100a8575b600080fd5b34801561005d57600080fd5b506100666100e5565b604051808273ffffffffffffffffffffffffffffffffffffffff1673ffffffffffffffffffffffffffffffffffffffff16815260200191505060405180910390f35b3480156100b457600080fd5b506100e3600480360360208110156100cb57600080fd5b8101908080351515906020019092919050505061010e565b005b60008060009054906101000a900473ffffffffffffffffffffffffffffffffffffffff16905090565b6000809054906101000a900473ffffffffffffffffffffffffffffffffffffffff1673ffffffffffffffffffffffffffffffffffffffff163373ffffffffffffffffffffffffffffffffffffffff161415156101d2576040517f08c379a000000000000000000000000000000000000000000000000000000000815260040180806020018281038252601b8152602001807f4f6e6c79206f776e65722063616e206d616b65206368616e676573000000000081525060200191505060405180910390fd5b600060149054906101000a900460ff161515811515141515156101f457600080fd5b80600060146101000a81548160ff0219169083151502179055507fb96236187cfb0bd6cfd6475d56a8dd9fb8aa64e0584573fedb3bdde6de7024d7813360405180831515151581526020018273ffffffffffffffffffffffffffffffffffffffff1673ffffffffffffffffffffffffffffffffffffffff1681526020019250505060405180910390a15056fea165627a7a72305820a06758359e719bd34e88b29c07a59e9b5aaa0604f81913a952e805de4af6406d0029",
  "source": "pragma solidity ^0.5.0;\n\nimport \"./Owner.sol\";\n\ncontract Pausable is Owner {\n    bool private paused;\n\n    event LogPaused (bool newState, address pausedBy);\n    \n    modifier notPaused() {\n        require (!paused, \"Contract paused\");\n        _;\n    }\n\n    constructor (bool initialState) public {\n        paused = initialState;\n    }\n\n    function contractPaused(bool newState) public onlyOwner() {\n        require(newState != paused);\n        paused = newState;\n        emit LogPaused (newState, msg.sender);\n    }\n}",
  "sourcePath": "/home/juan/DAPPS/Splitter-Proyect/contracts/Pausable.sol",
  "compiler": {
    "name": "solc",
    "version": "0.5.0+commit.1d4f565a.Emscripten.clang"
  },
  "schemaVersion": "3.0.3",
  "updatedAt": "2019-05-03T23:21:00.014Z",
  "devdoc": {
    "methods": {}
  },
  "userdoc": {
    "methods": {}
  }
}