{
  "contractName": "Splitter",
  "abi": [
    {
      "constant": true,
      "inputs": [
        {
          "name": "",
          "type": "address"
        }
      ],
      "name": "balances",
      "outputs": [
        {
          "name": "",
          "type": "uint256"
        }
      ],
      "payable": false,
      "stateMutability": "view",
      "type": "function"
    },
    {
      "constant": false,
      "inputs": [
        {
          "name": "newState",
          "type": "bool"
        }
      ],
      "name": "contractPaused",
      "outputs": [],
      "payable": false,
      "stateMutability": "nonpayable",
      "type": "function"
    },
    {
      "inputs": [],
      "payable": false,
      "stateMutability": "nonpayable",
      "type": "constructor"
    },
    {
      "anonymous": false,
      "inputs": [
        {
          "indexed": true,
          "name": "sender",
          "type": "address"
        },
        {
          "indexed": false,
          "name": "amount",
          "type": "uint256"
        },
        {
          "indexed": true,
          "name": "bob",
          "type": "address"
        },
        {
          "indexed": true,
          "name": "carol",
          "type": "address"
        },
        {
          "indexed": false,
          "name": "remainder",
          "type": "uint256"
        }
      ],
      "name": "LogSplitCoin",
      "type": "event"
    },
    {
      "anonymous": false,
      "inputs": [
        {
          "indexed": true,
          "name": "receiver",
          "type": "address"
        },
        {
          "indexed": false,
          "name": "amount",
          "type": "uint256"
        }
      ],
      "name": "LogWithdrawalSent",
      "type": "event"
    },
    {
      "anonymous": false,
      "inputs": [
        {
          "indexed": false,
          "name": "owner",
          "type": "address"
        }
      ],
      "name": "LogSplitterCreated",
      "type": "event"
    },
    {
      "anonymous": false,
      "inputs": [
        {
          "indexed": false,
          "name": "newState",
          "type": "bool"
        },
        {
          "indexed": false,
          "name": "pausedBy",
          "type": "address"
        }
      ],
      "name": "LogPaused",
      "type": "event"
    },
    {
      "constant": false,
      "inputs": [
        {
          "name": "bob",
          "type": "address"
        },
        {
          "name": "carol",
          "type": "address"
        }
      ],
      "name": "splitCoin",
      "outputs": [],
      "payable": true,
      "stateMutability": "payable",
      "type": "function"
    },
    {
      "constant": false,
      "inputs": [],
      "name": "withdrawal",
      "outputs": [],
      "payable": false,
      "stateMutability": "nonpayable",
      "type": "function"
    }
  ],
  "bytecode": "0x608060405234801561001057600080fd5b506000336000806101000a81548173ffffffffffffffffffffffffffffffffffffffff021916908373ffffffffffffffffffffffffffffffffffffffff16021790555080600060146101000a81548160ff021916908315150217905550507fe4f2cd9e493c61319fd17708d76f23a94265144e1bd458d8fa5fa2ed4a726d5533604051808273ffffffffffffffffffffffffffffffffffffffff1673ffffffffffffffffffffffffffffffffffffffff16815260200191505060405180910390a16109cb806100e06000396000f3fe608060405260043610610062576000357c0100000000000000000000000000000000000000000000000000000000900463ffffffff16806327e235e314610067578063d21b454a146100cc578063d4e9329214610130578063f378156a14610147575b600080fd5b34801561007357600080fd5b506100b66004803603602081101561008a57600080fd5b81019080803573ffffffffffffffffffffffffffffffffffffffff169060200190929190505050610184565b6040518082815260200191505060405180910390f35b61012e600480360360408110156100e257600080fd5b81019080803573ffffffffffffffffffffffffffffffffffffffff169060200190929190803573ffffffffffffffffffffffffffffffffffffffff16906020019092919050505061019c565b005b34801561013c57600080fd5b5061014561059f565b005b34801561015357600080fd5b506101826004803603602081101561016a57600080fd5b810190808035151590602001909291905050506107bd565b005b60016020528060005260406000206000915090505481565b600060149054906101000a900460ff16151515610221576040517f08c379a000000000000000000000000000000000000000000000000000000000815260040180806020018281038252600f8152602001807f436f6e747261637420706175736564000000000000000000000000000000000081525060200191505060405180910390fd5b6000809054906101000a900473ffffffffffffffffffffffffffffffffffffffff1673ffffffffffffffffffffffffffffffffffffffff163373ffffffffffffffffffffffffffffffffffffffff161415156102e5576040517f08c379a000000000000000000000000000000000000000000000000000000000815260040180806020018281038252601b8152602001807f4f6e6c79206f776e65722063616e206d616b65206368616e676573000000000081525060200191505060405180910390fd5b60003411151561035d576040517f08c379a000000000000000000000000000000000000000000000000000000000815260040180806020018281038252601d8152602001807f416d6f756e74206d7573742062652067726561746572207468616e203000000081525060200191505060405180910390fd5b600061037360023461092f90919063ffffffff16565b9050600061038b60023461095990919063ffffffff16565b90506001811015156103eb576103e981600160003373ffffffffffffffffffffffffffffffffffffffff1673ffffffffffffffffffffffffffffffffffffffff1681526020019081526020016000205461097e90919063ffffffff16565b505b61043d82600160008773ffffffffffffffffffffffffffffffffffffffff1673ffffffffffffffffffffffffffffffffffffffff1681526020019081526020016000205461097e90919063ffffffff16565b600160008673ffffffffffffffffffffffffffffffffffffffff1673ffffffffffffffffffffffffffffffffffffffff168152602001908152602001600020819055506104d282600160008673ffffffffffffffffffffffffffffffffffffffff1673ffffffffffffffffffffffffffffffffffffffff1681526020019081526020016000205461097e90919063ffffffff16565b600160008573ffffffffffffffffffffffffffffffffffffffff1673ffffffffffffffffffffffffffffffffffffffff168152602001908152602001600020819055508273ffffffffffffffffffffffffffffffffffffffff168473ffffffffffffffffffffffffffffffffffffffff163373ffffffffffffffffffffffffffffffffffffffff167f83b37745f75fee7b32d81a2291047f9e2d331b52d6875fdf41256cb22d2372833485604051808381526020018281526020019250505060405180910390a450505050565b600060149054906101000a900460ff16151515610624576040517f08c379a000000000000000000000000000000000000000000000000000000000815260040180806020018281038252600f8152602001807f436f6e747261637420706175736564000000000000000000000000000000000081525060200191505060405180910390fd5b6000600160003373ffffffffffffffffffffffffffffffffffffffff1673ffffffffffffffffffffffffffffffffffffffff1681526020019081526020016000205490506000811115156106e0576040517f08c379a00000000000000000000000000000000000000000000000000000000081526004018080602001828103825260088152602001807f4e6f2066756e647300000000000000000000000000000000000000000000000081525060200191505060405180910390fd5b6000600160003373ffffffffffffffffffffffffffffffffffffffff1673ffffffffffffffffffffffffffffffffffffffff168152602001908152602001600020819055503373ffffffffffffffffffffffffffffffffffffffff167f827f41d5926409d07eca7e19aaf32185743e73dbecb1e292e3908ae631347c7d826040518082815260200191505060405180910390a23373ffffffffffffffffffffffffffffffffffffffff166108fc829081150290604051600060405180830381858888f193505050501580156107b9573d6000803e3d6000fd5b5050565b6000809054906101000a900473ffffffffffffffffffffffffffffffffffffffff1673ffffffffffffffffffffffffffffffffffffffff163373ffffffffffffffffffffffffffffffffffffffff16141515610881576040517f08c379a000000000000000000000000000000000000000000000000000000000815260040180806020018281038252601b8152602001807f4f6e6c79206f776e65722063616e206d616b65206368616e676573000000000081525060200191505060405180910390fd5b600060149054906101000a900460ff161515811515141515156108a357600080fd5b80600060146101000a81548160ff0219169083151502179055507fb96236187cfb0bd6cfd6475d56a8dd9fb8aa64e0584573fedb3bdde6de7024d7813360405180831515151581526020018273ffffffffffffffffffffffffffffffffffffffff1673ffffffffffffffffffffffffffffffffffffffff1681526020019250505060405180910390a150565b6000808211151561093f57600080fd5b6000828481151561094c57fe5b0490508091505092915050565b600080821415151561096a57600080fd5b818381151561097557fe5b06905092915050565b600080828401905083811015151561099557600080fd5b809150509291505056fea165627a7a72305820ff51628032b8dc2fe77a6cbbdb87cb35deb2634722b131af2f5b0b455266b3fc0029",
  "source": "pragma solidity ^0.5.0;\n\nimport \"./SafeMath.sol\";\nimport \"./Pausable.sol\";\n\ncontract Splitter is Pausable (false) {\n    using SafeMath for uint;    \n\n    mapping(address => uint) public balances;\n\n    event LogSplitCoin(address indexed sender, uint amount, address indexed bob, address indexed carol, uint remainder);\n    event LogWithdrawalSent(address indexed receiver, uint amount);\n\n    event LogSplitterCreated(address owner);\n    constructor () public  {\n        emit LogSplitterCreated(msg.sender);\n    }\n    \n    \n    function splitCoin(address bob, address carol) public payable notPaused() onlyOwner{\n        require(msg.value>0, \"Amount must be greater than 0\" );\n        uint half = msg.value.div(2);\n        uint remainder = msg.value.mod(2);\n        if(remainder >= 1) balances[msg.sender].add(remainder);\n        balances[bob] = balances[bob].add(half);\n        balances[carol] = balances[carol].add(half);\n        emit LogSplitCoin(msg.sender, msg.value, bob, carol,remainder);\n    }\n    \n    function withdrawal() public notPaused() {\n        uint amountToWithdraw = balances[msg.sender];\n        require(amountToWithdraw > 0, \"No funds\");\n        balances[msg.sender] = 0;\n        emit LogWithdrawalSent(msg.sender, amountToWithdraw);\n        msg.sender.transfer(amountToWithdraw);\n    }\n}\n",
  "sourcePath": "/home/juan/DAPPS/Splitter-proyect/contracts/Splitter.sol",
  "compiler": {
    "name": "solc",
    "version": "0.5.0+commit.1d4f565a.Emscripten.clang"
  },
  "schemaVersion": "3.0.3",
  "updatedAt": "2019-05-02T15:07:27.618Z",
  "devdoc": {
    "methods": {}
  },
  "userdoc": {
    "methods": {}
  }
}