{
  "contractName": "Splitter",
  "abi": [
    {
      "constant": true,
      "inputs": [
        {
          "name": "",
          "type": "address"
        }
      ],
      "name": "balances",
      "outputs": [
        {
          "name": "",
          "type": "uint256"
        }
      ],
      "payable": false,
      "stateMutability": "view",
      "type": "function",
      "signature": "0x27e235e3"
    },
    {
      "constant": true,
      "inputs": [],
      "name": "getOwner",
      "outputs": [
        {
          "name": "myOwner",
          "type": "address"
        }
      ],
      "payable": false,
      "stateMutability": "view",
      "type": "function",
      "signature": "0x893d20e8"
    },
    {
      "constant": false,
      "inputs": [
        {
          "name": "newState",
          "type": "bool"
        }
      ],
      "name": "contractPaused",
      "outputs": [],
      "payable": false,
      "stateMutability": "nonpayable",
      "type": "function",
      "signature": "0xf378156a"
    },
    {
      "inputs": [],
      "payable": false,
      "stateMutability": "nonpayable",
      "type": "constructor",
      "signature": "constructor"
    },
    {
      "anonymous": false,
      "inputs": [
        {
          "indexed": false,
          "name": "sender",
          "type": "address"
        },
        {
          "indexed": false,
          "name": "amount",
          "type": "uint256"
        },
        {
          "indexed": false,
          "name": "bob",
          "type": "address"
        },
        {
          "indexed": false,
          "name": "carol",
          "type": "address"
        }
      ],
      "name": "LogSplitCoin",
      "type": "event",
      "signature": "0x5afdc5f1b06bc188c5871e1d6165b932d3e49c6a5d07e94d6eaab1e8e1bb6875"
    },
    {
      "anonymous": false,
      "inputs": [
        {
          "indexed": false,
          "name": "receiver",
          "type": "address"
        },
        {
          "indexed": false,
          "name": "amount",
          "type": "uint256"
        }
      ],
      "name": "LogWithdrawalSent",
      "type": "event",
      "signature": "0x827f41d5926409d07eca7e19aaf32185743e73dbecb1e292e3908ae631347c7d"
    },
    {
      "anonymous": false,
      "inputs": [
        {
          "indexed": false,
          "name": "owner",
          "type": "address"
        }
      ],
      "name": "LogSplitterCreated",
      "type": "event",
      "signature": "0xe4f2cd9e493c61319fd17708d76f23a94265144e1bd458d8fa5fa2ed4a726d55"
    },
    {
      "anonymous": false,
      "inputs": [
        {
          "indexed": false,
          "name": "newState",
          "type": "bool"
        },
        {
          "indexed": false,
          "name": "pausedBy",
          "type": "address"
        }
      ],
      "name": "LogPaused",
      "type": "event",
      "signature": "0xb96236187cfb0bd6cfd6475d56a8dd9fb8aa64e0584573fedb3bdde6de7024d7"
    },
    {
      "constant": false,
      "inputs": [
        {
          "name": "bob",
          "type": "address"
        },
        {
          "name": "carol",
          "type": "address"
        }
      ],
      "name": "splitCoin",
      "outputs": [],
      "payable": true,
      "stateMutability": "payable",
      "type": "function",
      "signature": "0xd21b454a"
    },
    {
      "constant": false,
      "inputs": [],
      "name": "withdrawal",
      "outputs": [
        {
          "name": "success",
          "type": "bool"
        }
      ],
      "payable": false,
      "stateMutability": "nonpayable",
      "type": "function",
      "signature": "0xd4e93292"
    }
  ],
  "bytecode": "0x608060405234801561001057600080fd5b506000336000806101000a81548173ffffffffffffffffffffffffffffffffffffffff021916908373ffffffffffffffffffffffffffffffffffffffff16021790555080600060146101000a81548160ff021916908315150217905550507fe4f2cd9e493c61319fd17708d76f23a94265144e1bd458d8fa5fa2ed4a726d5533604051808273ffffffffffffffffffffffffffffffffffffffff1673ffffffffffffffffffffffffffffffffffffffff16815260200191505060405180910390a1610a6b806100e06000396000f3fe60806040526004361061006d576000357c0100000000000000000000000000000000000000000000000000000000900463ffffffff16806327e235e314610072578063893d20e8146100d7578063d21b454a1461012e578063d4e9329214610192578063f378156a146101c1575b600080fd5b34801561007e57600080fd5b506100c16004803603602081101561009557600080fd5b81019080803573ffffffffffffffffffffffffffffffffffffffff1690602001909291905050506101fe565b6040518082815260200191505060405180910390f35b3480156100e357600080fd5b506100ec610216565b604051808273ffffffffffffffffffffffffffffffffffffffff1673ffffffffffffffffffffffffffffffffffffffff16815260200191505060405180910390f35b6101906004803603604081101561014457600080fd5b81019080803573ffffffffffffffffffffffffffffffffffffffff169060200190929190803573ffffffffffffffffffffffffffffffffffffffff16906020019092919050505061023f565b005b34801561019e57600080fd5b506101a761061c565b604051808215151515815260200191505060405180910390f35b3480156101cd57600080fd5b506101fc600480360360208110156101e457600080fd5b8101908080351515906020019092919050505061085d565b005b60016020528060005260406000206000915090505481565b60008060009054906101000a900473ffffffffffffffffffffffffffffffffffffffff16905090565b600060149054906101000a900460ff161515156102c4576040517f08c379a000000000000000000000000000000000000000000000000000000000815260040180806020018281038252600f8152602001807f436f6e747261637420706175736564000000000000000000000000000000000081525060200191505060405180910390fd5b60003411151561033c576040517f08c379a000000000000000000000000000000000000000000000000000000000815260040180806020018281038252601d8152602001807f416d6f756e74206d7573742062652067726561746572207468616e203000000081525060200191505060405180910390fd5b60006103526002346109cf90919063ffffffff16565b9050600061036a6002346109f990919063ffffffff16565b90506000610376610216565b9050600182101515610418576103d482600160008473ffffffffffffffffffffffffffffffffffffffff1673ffffffffffffffffffffffffffffffffffffffff16815260200190815260200160002054610a1e90919063ffffffff16565b600160008373ffffffffffffffffffffffffffffffffffffffff1673ffffffffffffffffffffffffffffffffffffffff168152602001908152602001600020819055505b61046a83600160008873ffffffffffffffffffffffffffffffffffffffff1673ffffffffffffffffffffffffffffffffffffffff16815260200190815260200160002054610a1e90919063ffffffff16565b600160008773ffffffffffffffffffffffffffffffffffffffff1673ffffffffffffffffffffffffffffffffffffffff168152602001908152602001600020819055506104ff83600160008773ffffffffffffffffffffffffffffffffffffffff1673ffffffffffffffffffffffffffffffffffffffff16815260200190815260200160002054610a1e90919063ffffffff16565b600160008673ffffffffffffffffffffffffffffffffffffffff1673ffffffffffffffffffffffffffffffffffffffff168152602001908152602001600020819055507f5afdc5f1b06bc188c5871e1d6165b932d3e49c6a5d07e94d6eaab1e8e1bb687533348787604051808573ffffffffffffffffffffffffffffffffffffffff1673ffffffffffffffffffffffffffffffffffffffff1681526020018481526020018373ffffffffffffffffffffffffffffffffffffffff1673ffffffffffffffffffffffffffffffffffffffff1681526020018273ffffffffffffffffffffffffffffffffffffffff1673ffffffffffffffffffffffffffffffffffffffff16815260200194505050505060405180910390a15050505050565b60008060149054906101000a900460ff161515156106a2576040517f08c379a000000000000000000000000000000000000000000000000000000000815260040180806020018281038252600f8152602001807f436f6e747261637420706175736564000000000000000000000000000000000081525060200191505060405180910390fd5b6000600160003373ffffffffffffffffffffffffffffffffffffffff1673ffffffffffffffffffffffffffffffffffffffff16815260200190815260200160002054905060008111151561075e576040517f08c379a00000000000000000000000000000000000000000000000000000000081526004018080602001828103825260088152602001807f4e6f2066756e647300000000000000000000000000000000000000000000000081525060200191505060405180910390fd5b6000600160003373ffffffffffffffffffffffffffffffffffffffff1673ffffffffffffffffffffffffffffffffffffffff168152602001908152602001600020819055507f827f41d5926409d07eca7e19aaf32185743e73dbecb1e292e3908ae631347c7d3382604051808373ffffffffffffffffffffffffffffffffffffffff1673ffffffffffffffffffffffffffffffffffffffff1681526020018281526020019250505060405180910390a13373ffffffffffffffffffffffffffffffffffffffff166108fc829081150290604051600060405180830381858888f19350505050158015610854573d6000803e3d6000fd5b50600191505090565b6000809054906101000a900473ffffffffffffffffffffffffffffffffffffffff1673ffffffffffffffffffffffffffffffffffffffff163373ffffffffffffffffffffffffffffffffffffffff16141515610921576040517f08c379a000000000000000000000000000000000000000000000000000000000815260040180806020018281038252601b8152602001807f4f6e6c79206f776e65722063616e206d616b65206368616e676573000000000081525060200191505060405180910390fd5b600060149054906101000a900460ff1615158115151415151561094357600080fd5b80600060146101000a81548160ff0219169083151502179055507fb96236187cfb0bd6cfd6475d56a8dd9fb8aa64e0584573fedb3bdde6de7024d7813360405180831515151581526020018273ffffffffffffffffffffffffffffffffffffffff1673ffffffffffffffffffffffffffffffffffffffff1681526020019250505060405180910390a150565b600080821115156109df57600080fd5b600082848115156109ec57fe5b0490508091505092915050565b6000808214151515610a0a57600080fd5b8183811515610a1557fe5b06905092915050565b6000808284019050838110151515610a3557600080fd5b809150509291505056fea165627a7a723058200b4d7c1c45efe04a1d9e0dbaaf01f7b7158de37bee36ff0b9a5ec33ec690fca70029",
  "source": "pragma solidity ^0.5.0;\n\nimport \"./SafeMath.sol\";\nimport \"./Pausable.sol\";\n\ncontract Splitter is Pausable (false)  {\n    using SafeMath for uint;    \n\n    mapping(address => uint) public balances;\n\n    event LogSplitCoin(address sender, uint amount, address  bob, address carol );\n    event LogWithdrawalSent(address receiver, uint amount);\n\n    event LogSplitterCreated(address owner);\n    constructor () public  {\n        emit LogSplitterCreated(msg.sender);\n    }\n    \n    \n    function splitCoin(address bob, address carol) public payable notPaused(){\n        require(msg.value>0, \"Amount must be greater than 0\" );\n        uint half = msg.value.div(2);\n        uint remainder = msg.value.mod(2);\n        address owner= getOwner();\n        if(remainder >= 1){\n           balances[owner]= balances[owner].add(remainder);  \n        } \n        balances[bob] = balances[bob].add(half);\n        balances[carol] = balances[carol].add(half);\n        emit LogSplitCoin(msg.sender, msg.value, bob, carol);\n    }\n    \n    function withdrawal() public notPaused() returns (bool success){\n        uint amountToWithdraw = balances[msg.sender];\n        require(amountToWithdraw > 0, \"No funds\");\n        balances[msg.sender] = 0;\n        emit LogWithdrawalSent(msg.sender, amountToWithdraw);\n        msg.sender.transfer(amountToWithdraw);\n        return true;\n\n    }\n}\n",
  "sourcePath": "/home/juan/DAPPS/Splitter-Proyect/contracts/Splitter.sol",
  "compiler": {
    "name": "solc",
    "version": "0.5.0+commit.1d4f565a.Emscripten.clang"
  },
  "schemaVersion": "3.0.3",
  "updatedAt": "2019-05-05T23:48:13.823Z",
  "devdoc": {
    "methods": {}
  },
  "userdoc": {
    "methods": {}
  }
}